{
  "contractName": "DVideo",
  "abi": [
    {
      "constant": true,
      "inputs": [],
      "name": "name",
      "outputs": [
        {
          "name": "",
          "type": "string"
        }
      ],
      "payable": false,
      "stateMutability": "view",
      "type": "function",
      "signature": "0x06fdde03"
    },
    {
      "constant": true,
      "inputs": [],
      "name": "videoCount",
      "outputs": [
        {
          "name": "",
          "type": "uint256"
        }
      ],
      "payable": false,
      "stateMutability": "view",
      "type": "function",
      "signature": "0xc61b5f4c"
    },
    {
      "constant": true,
      "inputs": [
        {
          "name": "",
          "type": "uint256"
        }
      ],
      "name": "videos",
      "outputs": [
        {
          "name": "id",
          "type": "uint256"
        },
        {
          "name": "hash",
          "type": "string"
        },
        {
          "name": "title",
          "type": "string"
        },
        {
          "name": "author",
          "type": "address"
        }
      ],
      "payable": false,
      "stateMutability": "view",
      "type": "function",
      "signature": "0xe6821bf5"
    },
    {
      "inputs": [],
      "payable": false,
      "stateMutability": "nonpayable",
      "type": "constructor",
      "signature": "constructor"
    },
    {
      "anonymous": false,
      "inputs": [
        {
          "indexed": false,
          "name": "id",
          "type": "uint256"
        },
        {
          "indexed": false,
          "name": "hash",
          "type": "string"
        },
        {
          "indexed": false,
          "name": "title",
          "type": "string"
        },
        {
          "indexed": false,
          "name": "author",
          "type": "address"
        }
      ],
      "name": "VideoUploaded",
      "type": "event",
      "signature": "0x2c44b862f4b4e08a26a765f9499900759a9ec95360a6f174d53163bd5d367f67"
    },
    {
      "constant": false,
      "inputs": [
        {
          "name": "_videoHash",
          "type": "string"
        },
        {
          "name": "_title",
          "type": "string"
        }
      ],
      "name": "uploadVideo",
      "outputs": [],
      "payable": false,
      "stateMutability": "nonpayable",
      "type": "function",
      "signature": "0x8a5447c5"
    }
  ],
  "bytecode": "0x6080604052600080556040805190810160405280600681526020017f44566964656f000000000000000000000000000000000000000000000000000081525060019080519060200190610053929190610066565b5034801561006057600080fd5b5061010b565b828054600181600116156101000203166002900490600052602060002090601f016020900481019282601f106100a757805160ff19168380011785556100d5565b828001600101855582156100d5579182015b828111156100d45782518255916020019190600101906100b9565b5b5090506100e291906100e6565b5090565b61010891905b808211156101045760008160009055506001016100ec565b5090565b90565b61095e8061011a6000396000f3fe608060405260043610610062576000357c0100000000000000000000000000000000000000000000000000000000900463ffffffff16806306fdde03146100675780638a5447c5146100f7578063c61b5f4c14610256578063e6821bf514610281575b600080fd5b34801561007357600080fd5b5061007c6103db565b6040518080602001828103825283818151815260200191508051906020019080838360005b838110156100bc5780820151818401526020810190506100a1565b50505050905090810190601f1680156100e95780820380516001836020036101000a031916815260200191505b509250505060405180910390f35b34801561010357600080fd5b506102546004803603604081101561011a57600080fd5b810190808035906020019064010000000081111561013757600080fd5b82018360208201111561014957600080fd5b8035906020019184600183028401116401000000008311171561016b57600080fd5b91908080601f016020809104026020016040519081016040528093929190818152602001838380828437600081840152601f19601f820116905080830192505050505050509192919290803590602001906401000000008111156101ce57600080fd5b8201836020820111156101e057600080fd5b8035906020019184600183028401116401000000008311171561020257600080fd5b91908080601f016020809104026020016040519081016040528093929190818152602001838380828437600081840152601f19601f820116905080830192505050505050509192919290505050610479565b005b34801561026257600080fd5b5061026b610707565b6040518082815260200191505060405180910390f35b34801561028d57600080fd5b506102ba600480360360208110156102a457600080fd5b810190808035906020019092919050505061070d565b6040518085815260200180602001806020018473ffffffffffffffffffffffffffffffffffffffff1673ffffffffffffffffffffffffffffffffffffffff168152602001838103835286818151815260200191508051906020019080838360005b8381101561033657808201518184015260208101905061031b565b50505050905090810190601f1680156103635780820380516001836020036101000a031916815260200191505b50838103825285818151815260200191508051906020019080838360005b8381101561039c578082015181840152602081019050610381565b50505050905090810190601f1680156103c95780820380516001836020036101000a031916815260200191505b50965050505050505060405180910390f35b60018054600181600116156101000203166002900480601f0160208091040260200160405190810160405280929190818152602001828054600181600116156101000203166002900480156104715780601f1061044657610100808354040283529160200191610471565b820191906000526020600020905b81548152906001019060200180831161045457829003601f168201915b505050505081565b6000825111801561048b575060008151115b80156104c45750600073ffffffffffffffffffffffffffffffffffffffff163373ffffffffffffffffffffffffffffffffffffffff1614155b15156104cf57600080fd5b600080815480929190600101919050555060806040519081016040528060005481526020018381526020018281526020013373ffffffffffffffffffffffffffffffffffffffff16815250600260008054815260200190815260200160002060008201518160000155602082015181600101908051906020019061055492919061088d565b50604082015181600201908051906020019061057192919061088d565b5060608201518160030160006101000a81548173ffffffffffffffffffffffffffffffffffffffff021916908373ffffffffffffffffffffffffffffffffffffffff1602179055509050507f2c44b862f4b4e08a26a765f9499900759a9ec95360a6f174d53163bd5d367f676000548383336040518085815260200180602001806020018473ffffffffffffffffffffffffffffffffffffffff1673ffffffffffffffffffffffffffffffffffffffff168152602001838103835286818151815260200191508051906020019080838360005b8381101561065f578082015181840152602081019050610644565b50505050905090810190601f16801561068c5780820380516001836020036101000a031916815260200191505b50838103825285818151815260200191508051906020019080838360005b838110156106c55780820151818401526020810190506106aa565b50505050905090810190601f1680156106f25780820380516001836020036101000a031916815260200191505b50965050505050505060405180910390a15050565b60005481565b6002602052806000526040600020600091509050806000015490806001018054600181600116156101000203166002900480601f0160208091040260200160405190810160405280929190818152602001828054600181600116156101000203166002900480156107bf5780601f10610794576101008083540402835291602001916107bf565b820191906000526020600020905b8154815290600101906020018083116107a257829003601f168201915b505050505090806002018054600181600116156101000203166002900480601f01602080910402602001604051908101604052809291908181526020018280546001816001161561010002031660029004801561085d5780601f106108325761010080835404028352916020019161085d565b820191906000526020600020905b81548152906001019060200180831161084057829003601f168201915b5050505050908060030160009054906101000a900473ffffffffffffffffffffffffffffffffffffffff16905084565b828054600181600116156101000203166002900490600052602060002090601f016020900481019282601f106108ce57805160ff19168380011785556108fc565b828001600101855582156108fc579182015b828111156108fb5782518255916020019190600101906108e0565b5b509050610909919061090d565b5090565b61092f91905b8082111561092b576000816000905550600101610913565b5090565b9056fea165627a7a72305820d5214c080675be53078fe0d234f3f5ab47bbbae9ed851564c81685a4be974aa20029",
  "source": "pragma solidity ^0.5.0;\r\n\r\n//[x] model the video\r\n//[x] upload the video\r\n//[ ] store the video\r\n//[ ] list videos\r\n\r\n\r\ncontract DVideo {\r\n  uint public videoCount = 0;\r\n  string public name = \"DVideo\";\r\n  \r\n  mapping(uint =>Video) public videos;\r\n  //Create Struct\r\n\r\n  struct Video{\r\n    uint id;\r\n    string hash;\r\n    string title;\r\n    address author; //since it is an etherium blockchain,it will be address of the uploader\r\n  }\r\n  //Create Event\r\n  event VideoUploaded(\r\n    uint id,\r\n    string hash,\r\n    string title,\r\n    address author\r\n  );\r\n  constructor() public {\r\n\r\n  }\r\n\r\n  function uploadVideo(string memory _videoHash, string memory _title) public {\r\n    // Make sure the video hash exists\r\n    // Make sure video title exists\r\n    // Make sure uploader address exists\r\n    require(bytes(_videoHash).length>0&&bytes(_title).length>0&&msg.sender!=address(0));\r\n   \r\n\r\n    // Increment video id\r\n    videoCount++;\r\n     // Add video to the contract\r\n    videos[videoCount]=Video(videoCount,_videoHash,_title,msg.sender);\r\n    emit VideoUploaded(videoCount,_videoHash,_title,msg.sender);\r\n    // Trigger an event\r\n  }\r\n}\r\n",
  "sourcePath": "D:/Blockchain Development/youtube clone/dvideo/src/contracts/DVideo.sol",
  "compiler": {
    "name": "solc",
    "version": "0.5.0+commit.1d4f565a.Emscripten.clang"
  },
  "schemaVersion": "3.0.1",
  "updatedAt": "2021-08-11T15:12:57.920Z",
  "devdoc": {
    "methods": {}
  },
  "userdoc": {
    "methods": {}
  }
}